:020000040800F2
:1000000000500020710E0008BD0D0008C30D00084F
:10001000C90D0008CF0D0008D50D00080000000034
:10002000000000000000000000000000DB0D0008E0
:10003000E70D000800000000F30D0008FF0D0008A8
:10004000B90E0008B90E0008B90E0008B90E000874
:10005000B90E0008B90E0008B90E0008B90E000864
:10006000B90E0008B90E0008B90E0008B90E000854
:10007000B90E0008B90E0008B90E0008B90E000844
:10008000B90E0008B90E0008B90E0008B90E000834
:10009000B90E0008B90E0008B90E0008B90E000824
:1000A000B90E0008B90E0008B90E0008B90E000814
:1000B000B90E0008B90E0008B90E0008B90E000804
:1000C000B90E0008B90E0008B90E0008B90E0008F4
:1000D000B90E0008B90E0008B90E0008B90E0008E4
:1000E000B90E0008B90E0008B90E000800000000A3
:1000F0000000000000000000000000000000000000
:0C01000000000000000000005FF808F1A3
:10010C000348044B834202D0034B03B1184770479A
:10011C000C0000200C0000200000000005480649DF
:10012C000B1AD90F01EBA301491002D0034B03B1F9
:10013C00184770470C0000200C0000200000000045
:10014C0010B5064C237843B9FFF7DAFF044B13B113
:10015C000448AFF300800123237010BD0C00002075
:10016C0000000000BC0E000808B5044B1BB104498C
:10017C000448AFF30080BDE80840CFE70000000062
:10018C0010000020BC0E000870B50D4E0D4D761BF6
:10019C00B61006D0002455F8043B01349847A6420B
:1001AC00F9D1094E094D00F083FE761BB61006D02E
:1001BC00002455F8043B01349847A642F9D170BD90
:1001CC00F80E0008F80E0008FC0E0008F80E0008E7
:1001DC00830730B548D0541E002A3FD00346CAB21C
:1001EC0001E0013C3AD303F8012B9D07F9D1032C14
:1001FC002DD9CDB245EA05250F2C45EA054536D952
:10020C00A4F1100222F00F0C03F1200EE6444FEA89
:10021C00121C03F1100242E9045542E90255103256
:10022C007245F8D10CF1010214F00C0F03EB021221
:10023C0004F00F0C13D0ACF1040323F003030433CC
:10024C00134442F8045B9342FBD10CF003042CB131
:10025C00CAB21C4403F8012B9C42FBD130BD64464E
:10026C001346002CF4D1F9E703461446BFE71A46AF
:10027C00A446E0E780B400AF00BFBD4680BC704729
:10028C0080B500AF084B1B68074A43F0100313609E
:10029C00032000F0E5FC0F2000F008F800F0B0FDA2
:1002AC000023184680BD00BF0020024080B582B0FC
:1002BC0000AF7860124B1A68124B1B7819464FF43A
:1002CC007A73B3FBF1F3B2FBF3F3184600F0EFFCD7
:1002DC000346002B01D001230EE07B680F2B0AD8BC
:1002EC00002279684FF0FF3000F0C5FC064A7B68AD
:1002FC001360002300E0012318460837BD4680BD7B
:10030C0000000020080000200400002080B400AF92
:10031C00054B1B781A46054B1B681344034A1360A4
:10032C0000BFBD4680BC704708000020280000209C
:10033C0080B400AF024B1B681846BD4680BC7047AA
:10034C002800002080B586B000AF78607B68002B59
:10035C0001D1012372E27B681B6803F00103002BBF
:10036C0000F08780924B5B6803F00C03042B0CD0DD
:10037C008F4B5B6803F00C03082B12D18C4B5B6822
:10038C0003F48033B3F5803F0BD1894B1B6803F426
:10039C000033002B6CD07B685B68002B68D1012389
:1003AC004CE27B685B68B3F5803F06D1804B1B68E1
:1003BC007F4A43F4803313602EE07B685B68002B2C
:1003CC000CD17B4B1B687A4A23F480331360784B37
:1003DC001B68774A23F4802313601DE07B685B68FD
:1003EC00B3F5A02F0CD1724B1B68714A43F48023D8
:1003FC0013606F4B1B686E4A43F4803313600BE041
:10040C006B4B1B686A4A23F480331360684B1B6880
:10041C00674A23F4802313607B685B68002B13D03E
:10042C00FFF786FF386108E0FFF782FF02463B6961
:10043C00D31A642B01D9032300E25D4B1B6803F430
:10044C000033002BF0D014E0FFF772FF386108E0A6
:10045C00FFF76EFF02463B69D31A642B01D90323C5
:10046C00ECE1534B1B6803F40033002BF0D100E09C
:10047C0000BF7B681B6803F00203002B63D04C4B5E
:10048C005B6803F00C03002B0BD0494B5B6803F04B
:10049C000C03082B1CD1464B5B6803F48033002BF8
:1004AC0016D1434B1B6803F00203002B05D07B686D
:1004BC001B69012B01D00123C0E13D4B1B6823F0CC
:1004CC00F8027B685B69DB00394913430B603AE047
:1004DC007B681B69002B20D0364B01221A60FFF77A
:1004EC0027FF386108E0FFF723FF02463B69D31A68
:1004FC00022B01D90323A1E12D4B1B6803F002034E
:10050C00002BF0D02A4B1B6823F0F8027B685B6948
:10051C00DB00274913430B6015E0264B00221A60C1
:10052C00FFF706FF386108E0FFF702FF02463B6960
:10053C00D31A022B01D9032380E11D4B1B6803F056
:10054C000203002BF0D17B681B6803F00803002B1F
:10055C003AD07B689B69002B19D0174B01221A608B
:10056C00FFF7E6FE386108E0FFF7E2FE02463B6962
:10057C00D31A022B01D9032360E10D4B5B6A03F004
:10058C000203002BF0D0012000F09CFA1CE00A4B77
:10059C0000221A60FFF7CCFE38610FE0FFF7C8FEAF
:1005AC0002463B69D31A022B08D9032346E100BF4C
:1005BC00001002400000424280044242924B5B6AAF
:1005CC0003F00203002BE9D17B681B6803F00403E2
:1005DC00002B00F0A6800023FB758B4BDB6903F02E
:1005EC008053002B0DD1884BDB69874A43F0805335
:1005FC00D361854BDB6903F08053BB60BB6801237F
:10060C00FB75824B1B6803F48073002B18D17F4B56
:10061C001B687E4A43F480731360FFF789FE3861D0
:10062C0008E0FFF785FE02463B69D31A642B01D91B
:10063C00032303E1754B1B6803F48073002BF0D08C
:10064C007B68DB68012B06D16F4B1B6A6E4A43F04B
:10065C00010313622DE07B68DB68002B0CD16A4B25
:10066C001B6A694A23F001031362674B1B6A664AD3
:10067C0023F0040313621CE07B68DB68052B0CD1B0
:10068C00614B1B6A604A43F0040313625E4B1B6AA6
:10069C005D4A43F0010313620BE05B4B1B6A5A4A41
:1006AC0023F001031362584B1B6A574A23F00403CF
:1006BC0013627B68DB68002B15D0FFF739FE3861BD
:1006CC000AE0FFF735FE02463B69D31A41F2883245
:1006DC00934201D90323B1E04B4B1B6A03F0020395
:1006EC00002BEED014E0FFF723FE38610AE0FFF791
:1006FC001FFE02463B69D31A41F28832934201D95C
:10070C0003239BE0404B1B6A03F00203002BEED14A
:10071C00FB7D012B05D13C4BDB693B4A23F080531D
:10072C00D3617B68DB69002B00F08780364B5B68FC
:10073C0003F00C03082B61D07B68DB69022B46D1DC
:10074C00334B00221A60FFF7F3FD386108E0FFF726
:10075C00EFFD02463B69D31A022B01D903236DE04E
:10076C00294B1B6803F00073002BF0D17B681B6ACC
:10077C00B3F5803F08D1244B5B6823F400327B68CF
:10078C009B68214913434B601F4B5B6823F4741225
:10079C007B68196A7B685B6A0B431B4913434B608C
:1007AC001B4B01221A60FFF7C3FD386108E0FFF70D
:1007BC00BFFD02463B69D31A022B01D903233DE04E
:1007CC00114B1B6803F00073002BF0D035E0104B7D
:1007DC0000221A60FFF7ACFD386108E0FFF7A8FDB6
:1007EC0002463B69D31A022B01D9032326E0064BA0
:1007FC001B6803F00073002BF0D11EE07B68DB69F3
:10080C00012B07D1012319E00010024000700040B9
:10081C00600042420B4B5B68FB60FB6803F4803268
:10082C007B681B6A9A4206D1FB6803F470127B68E2
:10083C005B6A9A4201D0012300E000231846183766
:10084C00BD4680BD0010024080B584B000AF78601A
:10085C0039607B68002B01D10123D0E06A4B1B6807
:10086C0003F007033A689A4210D9674B1B6823F0D0
:10087C00070265493B6813430B60634B1B6803F02D
:10088C0007033A689A4201D00123B8E07B681B68E1
:10089C0003F00203002B20D07B681B6803F00403D9
:1008AC00002B05D0594B5B68584A43F4E063536006
:1008BC007B681B6803F00803002B05D0534B5B6867
:1008CC00524A43F460535360504B5B6823F0F00280
:1008DC007B689B684D4913434B607B681B6803F036
:1008EC000103002B40D07B685B68012B07D1474B81
:1008FC001B6803F40033002B15D101237FE07B68C8
:10090C005B68022B07D1414B1B6803F00073002B73
:10091C0009D1012373E03D4B1B6803F00203002B4C
:10092C0001D101236BE0394B5B6823F003027B6838
:10093C005B68364913434B60FFF7FAFCF8600AE03A
:10094C00FFF7F6FC0246FB68D31A41F28832934259
:10095C0001D9032353E02D4B5B6803F00C027B6839
:10096C005B689B009A42EBD1274B1B6803F0070393
:10097C003A689A4210D2244B1B6823F00702224992
:10098C003B6813430B60204B1B6803F007033A686A
:10099C009A4201D0012332E07B681B6803F0040308
:1009AC00002B08D0194B5B6823F4E0627B68DB6892
:1009BC00164913434B607B681B6803F00803002B3C
:1009CC0009D0124B5B6823F460527B681B69DB0017
:1009DC000E4913434B6000F021F802460B4B5B6849
:1009EC001B0903F00F030A49CB5C22FA03F3094AF3
:1009FC001360094B1B681846FFF758FC0023184678
:100A0C001037BD4680BD00BF0020024000100240E0
:100A1C00D40E0008000000200400002080B487B031
:100A2C0000AF0023FB600023BB6000237B6100232D
:100A3C007B6000233B611E4B5B68FB60FB6803F033
:100A4C000C03042B02D0082B03D027E0194B3B617D
:100A5C0027E0FB689B0C03F00F03174AD35C7B6009
:100A6C00FB6803F48033002B10D0114B5B685B0CDC
:100A7C0003F00103114AD35CBB607B680D4A03FB96
:100A8C0002F2BB68B2FBF3F37B6104E07B680C4AB7
:100A9C0002FB03F37B617B693B6102E0054B3B612D
:100AAC0000BF3B6918461C37BD4680BC704700BF71
:100ABC000010024000127A00E40E0008F40E000848
:100ACC0000093D0080B485B000AF78600A4B1B680C
:100ADC000A4AA2FB03235B0A7A6802FB03F3FB605E
:100AEC0000BFFB685A1EFA60002BF9D100BF00BF93
:100AFC001437BD4680BC704700000020D34D6210F7
:100B0C0080B485B000AF78607B6803F00703FB60AE
:100B1C000C4BDB68BB60BA684FF6FF031340BB603D
:100B2C00FB681A02BB68134343F0BF6343F4003302
:100B3C00BB60044ABB68D36000BF1437BD4680BCA1
:100B4C00704700BF00ED00E080B400AF044BDB68E1
:100B5C001B0A03F007031846BD4680BC704700BF54
:100B6C0000ED00E080B483B000AF03463960FB7148
:100B7C0097F90730002B0ADB3B68DAB20C4997F97E
:100B8C0007301201D2B20B4483F800230AE03B6811
:100B9C00DAB20849FB7903F00F03043B1201D2B21D
:100BAC000B441A7600BF0C37BD4680BC704700BFA3
:100BBC0000E100E000ED00E080B489B000AFF86027
:100BCC00B9607A60FB6803F00703FB61FB69C3F152
:100BDC000703042B28BF0423BB61FB690433062BDA
:100BEC0002D9FB69033B00E000237B614FF0FF322D
:100BFC00BB6902FA03F3DA43BB681A407B699A407B
:100C0C004FF0FF317B6901FA03F3D9437B680B404A
:100C1C00134318462437BD4680BC704780B582B05C
:100C2C0000AF78607B68013BB3F1807F01D3012377
:100C3C000FE00A4A7B68013B53600F214FF0FF30F5
:100C4C00FFF790FF054B00229A60044B07221A60B5
:100C5C00002318460837BD4680BD00BF10E000E0F9
:100C6C0080B582B000AF78607868FFF749FF00BFAD
:100C7C000837BD4680BD80B586B000AF0346B9606D
:100C8C007A60FB7300237B61FFF75EFF78617A6803
:100C9C00B9687869FFF790FF024697F90F30114653
:100CAC001846FFF75FFF00BF1837BD4680BD80B503
:100CBC0082B000AF78607868FFF7B0FF0346184643
:100CCC000837BD4680BD80B500AFFFF7D9FA00F0FC
:100CDC0003F800F04BF8FEE780B590B000AF07F1D9
:100CEC001803282200211846FFF772FA3B1D002238
:100CFC001A605A609A60DA601A610123BB614FF482
:100D0C008033FB6100233B620123BB6202237B63C4
:100D1C004FF48033BB634FF4E013FB6307F118030C
:100D2C001846FFF70FFB0346002B01D000F019F813
:100D3C000F237B600223BB600023FB604FF48063B6
:100D4C003B6100237B613B1D02211846FFF77CFDB4
:100D5C000346002B01D000F004F800BF4037BD461D
:100D6C0080BD80B400AF72B600BFFEE780B483B024
:100D7C0000AF0E4B9B690D4A43F0200393610B4B64
:100D8C009B6903F020037B607B68084B9B69074AD7
:100D9C0043F004039361054B9B6903F004033B6030
:100DAC003B6800BF0C37BD4680BC7047001002404A
:100DBC0080B400AFFEE780B400AFFEE780B400AFB4
:100DCC00FEE780B400AFFEE780B400AFFEE780B46E
:100DDC0000AF00BFBD4680BC704780B400AF00BF01
:100DEC00BD4680BC704780B400AF00BFBD4680BC20
:100DFC00704780B500AFFFF789FA00BF80BD0000D7
:100E0C0080B485B000AF154B9B69144A43F00103C5
:100E1C009361124B9B6903F00103BB60BB680F4BE2
:100E2C00DB690E4A43F08053D3610C4BDB6903F052
:100E3C0080537B607B680A4B5B68FB60FB6823F02C
:100E4C00E063FB60FB6843F00073FB60044AFB68E3
:100E5C00536000BF1437BD4680BC70470010024081
:100E6C0000000140FFF706FA0B480C490C4A00231E
:100E7C0002E0D458C4500433C4188C42F9D3094A44
:100E8C00094C002301E013600432A242FBD3FFF7AC
:100E9C007BF9FFF718FF7047000000200C000020C2
:100EAC00000F00080C0000202C000020FEE70000C2
:100EBC00F8B500BFF8BC08BC9E467047F8B500BF3B
:080ECC00F8BC08BC9E4670470B
:100ED40000000000000000000102030406070809E6
:100EE40002030405060708090A0B0C0D0E0F101067
:040EF40001020000F7
:040EF8007501000878
:040EFC004D0100089C
:0C0F000000127A00100000000100000048
:0400000508000E7170
:00000001FF
